:100000000C9417010C9434010C9434010C943401B9
:100010000C9434010C9434010C9434010C9434018C
:100020000C9434010C9434010C9434010C947C0134
:100030000C9434010C9434010C9434010C9434016C
:100040000C9434010C9434010C9434010C9434015C
:100050000C9434010C9434010C9434010C9434014C
:100060000C9434010C943401485454502F312E30E8
:100070002034303120556E617574686F72697A650D
:10008000640D0A436F6E74656E742D547970653A11
:10009000746578742F68746D6C0D0A0D0A3C6831B4
:1000A0003E34303120556E617574686F72697A65BF
:1000B000643C2F68313E003C68313E323030204F86
:1000C0004B3C2F68313E002F696E6465782E706856
:1000D000703F74656D703D0067656E647265776F23
:1000E000726C642E6361003C2F7072653E0A00489A
:1000F000692C207468697320697320416E6472658D
:100100007720737065616B696E672E003C70726555
:100110003E00485454502F312E3020323030204F82
:100120004B0D0A436F6E74656E742D547970653A89
:1001300020746578742F68746D6C0D0A5072616755
:100140006D613A206E6F2D63616368650D0A0D0A5B
:10015000000D0A436F6E74656E742D547970653AA4
:10016000206170706C69636174696F6E2F782D7790
:1001700077772D666F726D2D75726C656E636F6427
:1001800065640D0A0D0A00436F6E74656E742D4C24
:10019000656E6774683A20000D0A557365722D41CB
:1001A00067656E743A207467722F312E310D0A41E3
:1001B00063636570743A202A2F2A0D0A000D0A0025
:1001C00020485454502F312E310D0A486F73743A21
:1001D0002000504F535420000D0A557365722D4175
:1001E00067656E743A207467722F312E310D0A41A3
:1001F00063636570743A20746578742F68746D6CED
:100200000D0A0D0A0020485454502F312E310D0A8A
:10021000486F73743A2000474554200000010800DD
:100220000604000145000082000040002000112467
:100230001FBECFEFD8E0DEBFCDBF11E0A0E0B1E040
:10024000ECE4F0E202C005900D92A433B107D9F7B7
:1002500024E0A4E3B1E001C01D92AB32B207E1F7A4
:100260000E945B0E0C9424100C9400005898089582
:10027000613049F4FA01A2EEB3E081918D9383E0FD
:10028000A83EB807D1F7089542E151E060E070E080
:100290008EE391E00E94AE030895CF93DF93EC01CB
:1002A0000E9444014CE051E0BC01CE010E94AE032B
:1002B0004FEE50E0BC01CE010E94AE0347EE50E08D
:1002C000BC01CE010E94AE03DF91CF910895109240
:1002D0003601E4E6F0E080818F7B808382E08093CA
:1002E00070001092B20094EF9093B3008093B0002E
:1002F00087E08093B10008951F920F920FB60F927E
:1003000011248F93809137018F5F80933701809103
:100310003701853118F081E0809339018F910F907A
:100320000FBE0F901F9018951092850010928400B8
:10033000109280008DE0809381008DE3809389008E
:1003400089E08093880082E080936F000895A0E0A8
:10035000B0E0EDEAF1E00C94590F6A015901909177
:100360000004891759F0E091FD03F091FE0340E08D
:1003700050E060E070E084EF91E03DC061113CC06E
:100380002D303105C8F1E090FD03F090FE03E1143B
:10039000F10491F1C091F103D091F203C40FD51F84
:1003A000888590E00E94BA0F892B01F1898590E041
:1003B000C0978A309105D0F40B8510E000531109E5
:1003C0000A30110598F44AE0489F9001499F300D8A
:1003D0001124AA85B0E0D097A20FB31F4A9FC00195
:1003E0004B9F900D1124800F911F02C080E090E080
:1003F000A501B601F701099580E0CDB7DEB7EAE0C7
:100400000C94750FFF920F931F93CF93DF93FB0113
:10041000413051F4AB014850510960E070E04F5E4B
:100420005F4F6F4F7F4F0FC0423051F4AB014850C8
:10043000510960E070E04A5F5F4F6F4F7F4F03C02C
:1004400040E050E0BA01EF01DC01C230D10598F084
:100450000C9110E020E030E0322F212F102F0027E8
:100460001196FC9011970F29400F511F621F731FA7
:1004700012962297EACFDF01AE7FA80FB91FE0FFE7
:100480000CC08C9190E0A0E0B0E0BA2FA92F982F7B
:100490008827480F591F6A1F7B1FCB01AA27BB273C
:1004A0000097A105B10519F066277727F2CFCA0199
:1004B00080959095CDB7DEB7E5E00C947A0F009764
:1004C00041F026E0FC01A9E1B4E001900D922A95EB
:1004D000E1F70895009721F46115710559F4089525
:1004E000DC01E5E1F4E08D91819384E0E931F807E6
:1004F000D1F7F2CFDB01EFE0F1E08D91819381E064
:10050000E331F807D1F70895CF93DF93E5E1F4E005
:10051000AFE0B1E0EC014991CE0121913D9124275A
:10052000232331F4D4E0E931FD07A1F780E001C0D5
:1005300081E0DF91CF910895DC015A96FB0180E0C4
:100540002D919191291305C08F5F8430C9F781E007
:10055000089580E0089569327105A8F0FC012485B2
:10056000283089F42585263071F4DC019696E5E182
:10057000F4E09D918191981306C084E0E931F80779
:10058000C1F781E0089580E00895FC016A327105A9
:10059000B0F08485883099F48585811110C08685F6
:1005A000853469F47E96A5E1B4E091918D9198131C
:1005B00006C084E0A931B807C1F781E0089580E062
:1005C0000895CF93DF93E9E1F4E0DC0116962C91D6
:1005D000EC012993CE0121912D93D4E0EF31FD0759
:1005E000B1F7DF91CF910895CF93DF93EC01188E8F
:1005F000198E80E48C8B1D8A8E8B40E064E170E064
:10060000CE010E960E940202988F898FDF91CF91C2
:100610000895CF93DF93EC016E96E5E1F4E0DC0101
:100620005A962C91299321912D9324E0E931F207D8
:10063000C1F70E94F402DF91CF910895FC01BA96B0
:10064000DC019E9686962291620F711D2E916C930D
:10065000442311F0208301C01082672F7727E81709
:10066000F90789F70895CF93DF93EC018CA19AA144
:100670009CA38AA38DA19BA19DA38BA3CE010E94C5
:100680001E031AAA1BAA80E58EA7DF91CF910895B9
:10069000CF93DF93EC010E94E1021C8A82E08D8BF4
:1006A000CE01809649E154E0DE0156962C91FC0182
:1006B0002193CF01FA012191AF012D93F4E04F3145
:1006C0005F07A1F7CE01869645E154E0DE015C9616
:1006D0002C91FC012193CF01FA012191AF012D93BF
:1006E000F4E049315F07A1F7BE018AE290E00E9481
:1006F000050BDF91CF9108950F931F93CF93DF9355
:10070000EC018B010E94E102CE010E9409031AA2B2
:100710009CA1983F18F08DA18F5F8DA3985F9CA33B
:10072000BE01C8010E94050BDF91CF911F910F916F
:100730000895FC01808990E0982F88272189822BD9
:10074000449726A522952F7034E0239F80199109A4
:10075000112497FF02C080E090E008959C01CB0136
:10076000461B570BFA01E80FF91FE491EE2339F00D
:10077000D901A80FB91FD696EC930196F3CF08952F
:10078000DB01D696A80FB91FFA01420F4E1719F0D8
:1007900081918D93FBCFCB01820F911D0895FA01BA
:1007A00001900020E9F79F0121503109241B350BEE
:1007B0000E94C0030895A5E0B0E0E1EEF3E00C94E0
:1007C0005D0F909100048913A4C08091FF030091F4
:1007D000F1031091F20381112CC047E152E060E077
:1007E00070E0C8010E94AE034091F7035091F803F6
:1007F000BC01C8010E94AE034091F5035091F6037D
:10080000BC01C8010E94CF0345E052E0BC01C80111
:100810000E94AE034091F3035091F403BC01C80160
:100820000E94AE0348ED51E0BC01C8010E94AE0336
:1008300072C042ED51E060E070E0C8010E94AE037A
:100840004091F7035091F803BC01C8010E94AE0328
:100850004091F5035091F603BC01C8010E94CF03FB
:1008600040EC51E0BC01C8010E94AE034091F3038B
:100870005091F403BC01C8010E94AE03E090FB0359
:10088000F090FC03E114F10459F04DEB51E0BC0190
:10089000C8010E94AE03A701BC01C8010E94AE03BB
:1008A00048E951E0BC01C8010E94AE0347E851E0AD
:1008B000BC01C8010E94AE037C01A091F903B09174
:1008C000FA03FD0101900020E9F731974AE0BE01EB
:1008D0006F5F7F4FCF018A1B9B0B0E94E70F009138
:1008E000F1031091F203AE014F5F5F4FB701C801F2
:1008F0000E94CF0341E551E0BC01C8010E94AE0354
:100900004091F9035091FA03BC01C8010E94CF0342
:1009100002C080E090E02596E6E00C94790FA3E019
:10092000B0E0E5E9F4E00C945F0F8C014B83698340
:100930007A830E94E1024B81842F8061F80187A7AE
:1009400069817A81443029F06115710511F461E003
:1009500070E041E0C8010E943303F801108A88E288
:10096000818BC8010E94090384E0F80180AB11AAC1
:1009700042E06CE170E0C8014A960E940202F80170
:1009800092AB83ABB80186E390E00E94050B2396FF
:10099000E4E00C947B0F0F931F93CF93DF93EC0154
:1009A0008B01CB018896988B898BCE010E94F40233
:1009B0001AAA1BAAB801645E7F4F42E0CE014A9694
:1009C0000E9402029AAB8BABBE01C801C6960E9480
:1009D000050BDF91CF911F910F910895611571055E
:1009E00019F4009759F40895DB01E5E1F4E02D9145
:1009F000219324E0E931F207D1F7F3CF0E945F029F
:100A000008959093EA03809313010895CF93DF93A1
:100A1000EC010E94E102188A8CE2898BCE010E94CF
:100A2000090382E18FA740E061E070E0CE010E94FF
:100A300033031EA21FA28091170188A719A68D5FFC
:100A40008093170182E08EAB84E08FAB85E088AFA6
:100A500019AE80E68EA78AE088AB19AA42E060E270
:100A600070E0CE014A960E9402029AAB8BABBE01A7
:100A70008AE390E00E94050BDF91CF9108950F93D8
:100A80001F93CF93DF93EC018B016091E80370918A
:100A9000E90340E00E948F0489E18FA7B801CE01ED
:100AA0000E94CB04DF91CF911F910F910895640FA5
:100AB000751F4617570741F0FA012491FC01219355
:100AC000CF014F5F5F4FF5CF0895A2E0B0E0EBE6B6
:100AD000F5E00C94590F5C01F62EE72E6A01E9E16E
:100AE000F4E0B5016A5F7F4FD8014D918D01DC01C3
:100AF0004D93CD014191DB014D93BD01B4E0EF3148
:100B0000FB0791F788E0F5018487158644E252E0FF
:100B100069E070E0C5010E9629833A830E9457056B
:100B200080910E01D50153968C9353978F5F8093DC
:100B30000E0150961C92509781E157968C93860136
:100B4000C5014E96A5E1B4E03A812981F8014191B1
:100B50008F01FC014193CF016D91AF0145505109C7
:100B6000FA016083F4E0A931BF0781F7D5019496BB
:100B70003C93949795962C9395979296EC92929796
:100B80009396FC92939796961C92969798961C92A1
:100B9000989799961C922296EAE00C94750F0F9301
:100BA0001F93CF93DF93EC018B01CB014C96898B84
:100BB000988BCE010E94F402C80108968FA39EA3D1
:100BC000B801605F7F4F41E0CE014A960E94020269
:100BD00089A798A7BE01C8018A960E94050BDF91DC
:100BE000CF911F910F910895A0E0B0E0EAEFF5E0FA
:100BF0000C94580FEC01B62EA72E942EB901A80123
:100C0000970186010E946505692D6D3D08F06CED28
:100C10009B2DDE019A96EB2DFA2D8E2F891B8617C0
:100C200018F481918D93F9CF70E0CE010E94CF0529
:100C3000CDB7DEB7EBE00C94740F0F931F93CF93F7
:100C4000DF93EC018B0180911504882309F448C0DF
:100C5000CE01AE014A5F5F4FE9E1F4E03FEFDC0116
:100C60003D93CD012191DA012D93AD01B4E0EF3137
:100C7000FB07A9F788E08C8786E08D874CE152E07E
:100C800068E070E0CE010E960E945705DE01909656
:100C900049E154E0FA012191AF01CD010A97FC012D
:100CA00020831D92F4E04F315F07A1F7B801CE0118
:100CB0008696A5E1B4E0FB012191BF01FC012193DF
:100CC000CF014D919F012B503109F9014083F4E090
:100CD000A931BF0781F7BE018AE290E00E94050BAF
:100CE000DF91CF911F910F91089581E09091EC03D6
:100CF000923009F480E0089550932A044093290427
:100D000021E02093EC036093EB03EDEEF3E0DC01D4
:100D10002D91CD012193B3E0E13FFB07C1F7089589
:100D2000FF920F931F93CF93DF93EC01162F042FA5
:100D3000F52EE8E0F4E09C0189E194E0BE016A5FF1
:100D40007F4F4191D9014D939D01DC014D91CD0122
:100D5000DB014D93BD01B4E0EE30FB0791F788E075
:100D60008C871D8644E252E069E070E0CE010E9669
:100D70000E9457058CE2898B80910E018B8B8F5FCF
:100D800080930E0186E08F8B6EE074E0DE015E964C
:100D900085E194E0FB012191BF012D93FC0141917C
:100DA000CF019D0125503109F9014083F4E0623102
:100DB0007F0781F7CE010E94F402FCA20DA38BE015
:100DC0008AA31BA3FE01B69688E011928150E9F731
:100DD0008091170188A78D5F8093170180E68EA709
:100DE00082E08FA793E098AB19AA1AAA1BAA1CAAA3
:100DF0001DAA8EAB94E09FAB88AF8EEE89AF42E028
:100E000060E270E0CE014A960E9402029AAB8BAB80
:100E1000BE018AE390E00E94050BCDB7DEB7E5E0A6
:100E20000C947A0F0F931F93909304048093030400
:100E30007093020460930104F901AEE0B4E0819183
:100E40008D9384E0A231B807D1F7F801A8E0B4E0AF
:100E500081918D9384E0AE30B807D1F750930604AA
:100E60004093050481E080930704809112048F5F12
:100E7000883018F48093120402C0109212048091FA
:100E800012041F910F910895A0E0B0E0EAE4F7E0AA
:100E90000C94550FEC016B015A013901480187018F
:100EA0000E94FE0A8823E9F0D093F803C093F70369
:100EB000D092F603C092F503B092F403A092F3032C
:100EC0001092FF037092FE036092FD03940140E5CF
:100ED00050E06BED73E087EA91E00E941207809387
:100EE0000004CDB7DEB7EEE00C94710FA0E0B0E0E7
:100EF000ECE7F7E00C94530FEC014B013A012901A8
:100F00000E94FE0A882339F1D093F803C093F703B7
:100F10007092F4036092F3039092F6038092F503CB
:100F20005092FC034092FB031093FA030093F903E1
:100F300081E08093FF03F092FE03E092FD038501C0
:100F4000960140E550E06BED73E087EA91E00E9486
:100F5000120780930004CDB7DEB7E0E10C946F0F69
:100F600090931404809313040895A1E0B0E0EBEB98
:100F7000F7E00C945B0F6C018B016115710509F0B2
:100F800054C08091EC03893079F4809114019091E0
:100F90001501892B49F40E94FE0A882329F06DEE81
:100FA00073E0C6010E941D068091EC03813091F42C
:100FB0000E94FE0A882371F06DEE73E0C6010E9464
:100FC0001D068091EC0388608093EC03109215015C
:100FD0001092140180911401909115010196909343
:100FE00015018093140180910704813009F061C1DB
:100FF0000E94FE0A882309F45CC182E08093070402
:10100000609116016F5F6093160140910504509145
:1010100006046F718091120420E2829FC0011124A6
:10102000682BC6010E94900644C10E94AB0288232F
:1010300059F1D60155968C91813019F4C6010E9460
:1010400048038091EC0383FF34C1F6011589123007
:1010500009F02FC144E050E06DEE73E0C6014C96FC
:101060000E94C10F892B09F024C1A6014A5E5F4F7F
:10107000E0912904F0912A046091EB038DEE93E056
:1010800009951093EC0315C1B801C6010E94C50271
:10109000882309F40EC1D60157968C915797813059
:1010A00099F492968C91883009F003C1E091130471
:1010B000F0911404309719F0C6014A960995B801C9
:1010C000C6010E947C03F5C00633110508F4F1C087
:1010D000863009F0EEC0F60184A18B3009F0C6C05D
:1010E000D092F203C092F1036EE074E0C6010E9458
:1010F0009C02882309F4DDC0D6019F962C919F970E
:1011000022FF13C0E0910304F0910404309709F426
:1011100088C095968C9120E030E040E050E063E09C
:1011200082958695877009957CC0C60129830E94A7
:1011300099037C01809107042981823099F5822FDF
:1011400080712271223109F540E060E070E0C60153
:101150000E948F0488E1F60187A7E0910104F091D5
:101160000204309741F0D60193968C918295869532
:101170008770099502C080E090E023E02093070487
:10118000BC01C6010E94CB0494C091E09093070477
:10119000811104C0B7016F5F7F4F02C060E070E053
:1011A00044E084C08330A9F5E114F10491F184E0B6
:1011B00080930704E0910304F0910404309749F10F
:1011C000D6019E964C9142954F70B4E04B9FA00182
:1011D0001124C80108974E5D5F4F8417950708F4E6
:1011E000AC01C701840F951F0817190720F4980157
:1011F000241B350B01C09701D60195968C9160E0B8
:101200008295869587700995882319F049E0B70182
:1012100020C090910704F60187A5953021F484FF42
:1012200048C086E01AC0963071F484FD04C0B7014E
:101230006F5F7F4F02C060E070E044E0C6010E9433
:101240008F0487E00AC080FF0BC0B7016F5F7F4F3C
:1012500041E0C6010E948F0485E08093070429C005
:10126000E114F10431F140E0B70120C09091EA03AC
:1012700089131FC095A18091130198131AC0F7A478
:10128000F1FE04C0C6010E94060513C0F4FE11C0A1
:10129000C6010E9499039093E9038093E803892B88
:1012A00059F4F0FE06C040E060E070E0C6010E9424
:1012B0008F0480E090E010C0F60126A522952F70E3
:1012C000F4E02F9F900111242E5D3F4F085011092B
:1012D0000217130770F3C9012196E8E00C94770F09
:1012E0002A98962F9F71982B9EBD0DB407FEFDCFB7
:1012F0001EBC0DB407FEFDCF67FD03C02A9A8EB554
:1013000008951EBC0DB407FEFDCFF8CF2A986F716B
:10131000682B6EBD0DB407FEFDCF4EBD0DB407FEAC
:10132000FDCF2A9A0895FB012A982AE32EBD0DB419
:1013300007FEFDCF8E0F9F1FE817F90739F01EBC7F
:101340000DB407FEFDCF2EB52193F6CF10822A9A59
:1013500008952A982AE72EBD0DB407FEFDCF860F0B
:10136000971F6817790741F0FB012191BF012EBD3E
:101370000DB407FEFDCFF5CF2A9A08951F93CF93A2
:10138000DF93182F1076C12FD0E02091210430E098
:10139000C217D30789F043E06FE180EA0E94860913
:1013A000AE0185E0559547958A95E1F76FE180E8B4
:1013B0000E94860910932104DF91CF911F91089517
:1013C000A1E0B0E0E6EEF9E00C94610F682F6983CC
:1013D0000E94BE09698180E00E9470092196E2E0C6
:1013E0000C947D0FA1E0B0E0E8EFF9E00C94600F01
:1013F000182F69830E94BE094981612F80E40E94F1
:1014000086092196E3E00C947C0FCF93682F84ED3E
:101410000E94F20961E082ED0E94F2098AEE0E94C8
:10142000E00980FDFBCF60E082ED0E94F20989EDCA
:101430000E94E009C82F88ED0E94E0092C2F30E0BF
:10144000322F2227A901482BCA01CF910895A1E08C
:10145000B0E0EDE2FAE00C94600F162F682F84EDF7
:1014600079830E94F209612F86ED0E94F209798149
:10147000672F87ED0E94F20918E28AEE0E94E009C8
:1014800080FF04C0812F8A95F1F7F7CF2196E3E022
:101490000C947C0F682F677085E70E94F20908950D
:1014A000CF93DF93EC01229A2A9A84B1886284B99F
:1014B00024982B982D9880E58CBD8DB581608DBDCD
:1014C0004FEF60E08FEF0E94860980E090E0019787
:1014D000F1F71092200410921F0460E088E00E944F
:1014E000F20960E089E00E94F20960E08CE00E946D
:1014F000F20960E08DE00E94F2096FEF8AE00E943D
:10150000F20969E18BE00E94F20960E084E00E9448
:10151000F2096AE185E00E94F2096FEF86E00E941D
:10152000F2096FE187E00E94F20960EB88E30E9414
:10153000F2096FE388E20E94F20960E389E20E9407
:10154000F20969EF80E30E94F20967EF81E30E94EC
:10155000F2096DE080EC0E94F20960E081EC0E94EB
:10156000F20942E362EC80E80E94860962E186ECBF
:101570000E94F2096CE087EC0E94F20962E184ECBF
:101580000E94F2096CED8AEC0E94F20965E08BEC96
:101590000E94F209688184EE0E94F209698185EE59
:1015A0000E94F2096A8182EE0E94F2096B8183EE49
:1015B0000E94F2096C8180EE0E94F2096D8181EE39
:1015C0000E94F20960E071E080E10E94270A8FE149
:1015D0000E94BE0940EC6BE180E80E94860944E06D
:1015E0006FE180E80E948609DF91CF91089582E73C
:1015F0000E94E009863008F08F5F089581E10E9423
:10160000050A92FB882780F908950F931F93CF93C3
:10161000DF93EC018B016FE180E00E94700983FF92
:1016200010C08CE10E94E00981FFF5CF40E86FE136
:1016300080E80E94860940E86FE180EA0E948609FE
:10164000EACF60E082E00E94F2096AE183E00E9452
:10165000F2096C2F86E00E94F209CE01965E692F96
:1016600087E00E94F20940E060E08AE70E94860974
:10167000B801CE010E94A90948E06FE180E80E940C
:101680008609DF91CF911F910F91089589E30E9400
:10169000E00991E0811101C090E0892F0895A0E058
:1016A000B0E0E5E5FBE00C94580F7C016B0189E3A9
:1016B0000E94E009882309F45CC060911F04C09176
:1016C000200480E00E94F2096C2F81E00E94F20960
:1016D00060E08AE30E947009082F60E08AE30E94BC
:1016E000700910E0182B1093200400931F0460E091
:1016F0008AE30E947009C82F60E08AE30E947009A3
:10170000982E60E08AE30E947009A82EB12C60E058
:101710008AE30E947009A7FE0FC09701215031098A
:10172000D0E0D92924972C173D0708F4E901B60128
:10173000CE010E94930902C0C0E0D0E06FEF0130FB
:101740008AE118072CF08CE00E94F20969E107C0D9
:10175000600F8CE00E94F20901501109612F8DE0A9
:101760000E94F20940E46EE180E80E948609CE0101
:1017700002C080E090E0CDB7DEB7EBE00C94740FD0
:10178000CF93DF93FC01D90180E09081592F5F7DD9
:1017900039F48130D1F5DB0150E0415051092EC0C0
:1017A0009D30B9F38111F5CF5C9195131BC0A21741
:1017B000B30739F4EF01219798819F3311F09632E6
:1017C00091F411969C911197992311F011960BC0E9
:1017D000EF01219681E091819D3309F080E0D901EC
:1017E000FE0101C0D9013196D0CF9D3069F096320B
:1017F00059F030E0241735073CF49D932A2F261B1F
:101800009191392F3F7D89F71C92DF91CF910895F7
:1018100090ED980F9A3060F09FE9980F963010F491
:10182000875508959FEB980F963020F487530895BD
:10183000892F089580E00895A0E0B0E0E2E2FCE0A6
:101840000C945C0FEC018C0188818823E1F08B32D1
:10185000A1F0853299F47E0182E0E80EF11C8981C5
:101860000E94080CD82E8A810E94080C90E1D99E13
:1018700090011124822BE70101C080E2F8018193DD
:101880008F012196E1CFF8011082CDB7DEB7E7E0F6
:101890000C94780FFB01982F9F709A3014F4905D90
:1018A00001C0995A918382958F708A3014F4805DBB
:1018B00001C0895A808312820895AF92BF92DF924D
:1018C000EF92FF920F931F93CF93DF931F92CDB7A9
:1018D000DEB75B018C0185E2D82EF80121918F01E2
:1018E0002223F9F0C50101967C01203259F0822FA4
:1018F000992787FD909529830E94A60F2981892B1E
:1019000011F405C02BE2F50120835701E6CFF50164
:10191000D082B701822F0E944A0CF3E0AF0EB11CB7
:10192000DCCFF50110820F90DF91CF911F910F91C5
:10193000FF90EF90DF90BF90AF900895A5E0B0E0EA
:10194000E4EAFCE00C945B0F8C01FC011082118234
:10195000128213827B0130E020E0F70141917F0188
:10196000442361F13430D8F5233090F4842F992743
:1019700087FD9095C0970A9748F4E1E0F0E0EC0FFE
:10198000FD1FE20FF11D40832F5F02C0222329F3C8
:101990004E3219F7E1E0F0E0EC0FFD1FE20FF11D10
:1019A00010826801C30ED11CCE0101963D830E94B6
:1019B000880FF60180833D813F5FCECF333079F4CD
:1019C000E1E0F0E0EC0FFD1FE20FF11D1082CE010F
:1019D00001960E94880FF801838380E001C081E0B6
:1019E0002596E8E00C94770F8F929F92BF92CF924A
:1019F000DF92EF92FF920F931F93CF93DF931F928B
:101A0000CDB7DEB77C01C42EB62E4B01D12C10E031
:101A1000882D8B198C15C8F4F40181914F01A80110
:101A2000B7016D0D711D90E029830E94DC0F2981A3
:101A3000F701ED0DF11D8081882311F0D394F8CFCB
:101A4000222331F32083D394E3CFDA94F701ED0D11
:101A5000F11D10820F90DF91CF911F910F91FF9098
:101A6000EF90DF90CF90BF909F908F9008958091DE
:101A700027040895809122040895E3E2F4E021917F
:101A8000DC012D93CD01B4E0E732FB07C1F70895E7
:101A900050E040E0FC016191CF01662389F0262FE0
:101AA000332727FD3095205331092A30310530F096
:101AB0006E3259F4413049F45F5FEBCF41E0EACF39
:101AC000413019F481E0533009F080E00895EF923D
:101AD000FF920F931F93CF93DF93EC01F62EE72E27
:101AE0008A01109227040E94FE0A811105C084E039
:101AF0008093220481E069C010922204809128041E
:101B00008F5F80932804682F70E0706E25E330E0CB
:101B100048E151E0CE010E946505809128048BA721
:101B200081E08CA7FE01BD9683E011928F5F8C301F
:101B3000E1F781E08FA7EF2DFE2D21E03CE04DE0A5
:101B40004F19642F6E0F5081862F90E0552391F02E
:101B50005E3241F4DE01A30FB11D21509A962C9301
:101B6000362F20E0DE01A80FB91F51919A965C93A1
:101B70002F5FE7CFFE01E30FF11D215022A7FE01E9
:101B8000E80FF91F12A681E0860FFE01E80FF11D94
:101B900012A682E0860FFE01E80FF11D81E082A708
:101BA00093E0960FFE01E90FF11D12A694E0960F47
:101BB000FE01E90FF11D82A789EF860F8AA76B5FEF
:101BC00070E0CE010E94CF0580E0CDB7DEB7E6E041
:101BD0000C94790FCF93DF93FC016634710508F400
:101BE00066C083A1853309F062C084A1803E09F0FC
:101BF0005EC085A190912804891359C093A59813BC
:101C000056C085A58F78803811F081E039C022A5B3
:101C1000245F61537109DF01A20FB11D9A968C9167
:101C2000807C61F02E5F0FC081E0820FDF01A80F82
:101C3000B11D9A969C919923A9F3282F822F90E0A9
:101C40008617970788F3DF01A20FB11D9B968C9131
:101C50009B97813081F088E0820FDF01A80FB11DD2
:101C60009B968C91265F280F822F90E0861797070E
:101C700090F283E005C0D3968C91843021F082E00D
:101C80008093220414C0265FA3E2B4E080E090E0D9
:101C9000E20FF11DEF01C80FD91F2AA52D93019660
:101CA00084309105B9F781E08093270401C080E07A
:101CB000DF91CF910895A4E1B0E0E1E6FEE00C945D
:101CC0005B0F80E8809361001092610080E08A954C
:101CD000F1F788E091E00E94500A82E00E944A0AEF
:101CE00080E08A95F1F70E949401789466E774E0A9
:101CF00084E10E94270A64E071E088E091E00E949C
:101D0000EE0480E590E00E94010592E0D92ECC24FB
:101D1000C3946EE371E08AE892E00E944F0B7C016D
:101D2000BC018EE391E00E94B5078C01E114F1043F
:101D300009F077C080913401811109C048E351E076
:101D400061E080E091E00E947C06C09234010E9434
:101D50007506811106C080913401813011F4D09252
:101D6000340180913501811115C080913401823098
:101D7000E9F40E94FE0A882361F210923701C092B2
:101D8000350142EE53E06CE171E08EE391E00E9498
:101D9000670DBFCF813051F40E94370D882331F099
:101DA000D09235018EED93E00E943D0D809135017A
:101DB000823041F0809137018D3308F4AACF109220
:101DC0003501A7CF80913901813009F0A2CF589A0F
:101DD0001092370110923901809138018F5F809302
:101DE00038010AE02EE244E06AE371E0CE01019698
:101DF0000E94F40C69EC73E0CE0101960E945D0C28
:101E000082EEE82E83E0F82E0EED13E026E331E0BB
:101E100048ED50E069EC73E087EC90E00E944407E5
:101E200078CF009731F4B7018EE391E00E94EA0D7C
:101E300070CF44E050E0BC01625C7E4F8BE291E0E9
:101E40000E94CE0F892B79F00E94440147EB50E0AD
:101E5000BC018EE391E00E94AE038C01BC018EE3D5
:101E600091E00E943F05B8016E5B7E4F42E050E07A
:101E700080E391E00E94CE0F892B29F48EE391E05C
:101E80000E944D0108C048E650E060E070E08EE33B
:101E900091E00E94AE03BC018EE391E00E943F05F9
:101EA00038CF2F923F924F925F926F927F928F9294
:101EB0009F92AF92BF92CF92DF92EF92FF920F93D9
:101EC0001F93CF93DF93CDB7DEB7CA1BDB0B0FB6E3
:101ED000F894DEBF0FBECDBF09942A8839884888A0
:101EE0005F846E847D848C849B84AA84B984C88436
:101EF000DF80EE80FD800C811B81AA81B981CE0F2D
:101F0000D11D0FB6F894DEBF0FBECDBFED01089511
:101F1000FC0188279927E89421912032E9F32930A0
:101F200010F02E30C8F32B3241F02D3239F4689482
:101F300004C00E94F20F820F911D219120532A307C
:101F4000C0F31EF4909581959F4F0895911106C09E
:101F500080538A5010F0865C06C008959927882720
:101F6000089585FDFBCF80629111F8CF81568A518B
:101F7000E0F708959111F2CF803211F08930D9F74E
:101F80000895FB01DC0104C08D910190801921F4BA
:101F900041505040C8F7881B990B0895FB01DC01A4
:101FA0004150504030F08D910190801919F400207B
:101FB000B9F7881B990B08954532510520F442303A
:101FC00010F00C94E70FFB011082CB010895BB27A2
:101FD0004A3031F4992322F4BDE2909581959F4FC8
:101FE0000C94FB0F7AE0979F902D879F802D910D89
:101FF00011240895BB27FB015527AA27880F991F95
:10200000AA1FA41710F0A41B83955051B9F7A05D27
:10201000AA3308F0A95DA193009779F7B111B193A4
:102020001192CB010C941410DC01FC01672F71910B
:102030007723E1F7329704C07C916D9370836291AE
:0C204000AE17BF07C8F30895F894FFCF57
:10204C00C0A80001C0A8003254555810002902FF46
:10205C00FFFFFF500100010A0808080867656E645D
:10206C007265776F726C642E636100474554200073
:04207C002F20000011
:00000001FF
